{
  "_format": "hh-sol-artifact-1",
  "contractName": "padlock",
  "sourceName": "contracts/padlock.sol",
  "abi": [
    {
      "inputs": [],
      "stateMutability": "nonpayable",
      "type": "constructor"
    },
    {
      "inputs": [
        {
          "internalType": "uint256",
          "name": "_index",
          "type": "uint256"
        }
      ],
      "name": "getTumbler",
      "outputs": [
        {
          "internalType": "uint256",
          "name": "",
          "type": "uint256"
        }
      ],
      "stateMutability": "view",
      "type": "function"
    },
    {
      "inputs": [],
      "name": "getTumblerCount",
      "outputs": [
        {
          "internalType": "uint256",
          "name": "",
          "type": "uint256"
        }
      ],
      "stateMutability": "view",
      "type": "function"
    },
    {
      "inputs": [],
      "name": "resetTumblers",
      "outputs": [],
      "stateMutability": "nonpayable",
      "type": "function"
    },
    {
      "inputs": [
        {
          "internalType": "uint256[]",
          "name": "_tumblers",
          "type": "uint256[]"
        }
      ],
      "name": "unlock",
      "outputs": [
        {
          "internalType": "bool",
          "name": "",
          "type": "bool"
        }
      ],
      "stateMutability": "view",
      "type": "function"
    }
  ],
  "bytecode": "0x608060405234801561001057600080fd5b50610452806100206000396000f3fe608060405234801561001057600080fd5b506004361061004c5760003560e01c80635d36598f146100515780639b6d3e0514610079578063ca58f13c1461009a578063f916648c146100a4575b600080fd5b61006461005f3660046102e7565b6100ac565b60405190151581526020015b60405180910390f35b61008c6100873660046103a4565b61012f565b604051908152602001610070565b6100a2610156565b005b60015461008c565b6001548151600091146100c157506000919050565b60005b60015481101561012657600181815481106100e1576100e16103bd565b90600052602060002001548382815181106100fe576100fe6103bd565b6020026020010151146101145750600092915050565b8061011e816103d3565b9150506100c4565b50600192915050565b600060018281548110610144576101446103bd565b90600052602060002001549050919050565b60006101626007610222565b90505b600381101561017f576101786007610222565b9050610165565b806001600160401b03811115610197576101976102d1565b6040519080825280602002602001820160405280156101c0578160200160208202803683370190505b5080516101d591600191602090910190610271565b5060005b60015481101561021e576101ed600a610222565b60018281548110610200576102006103bd565b60009182526020909120015580610216816103d3565b9150506101d9565b5050565b60008054604080514260208201524491810191909152606081019190915260800160408051601f198184030181529190528051602090910120600081905561026b9083906103fa565b92915050565b8280548282559060005260206000209081019282156102ac579160200282015b828111156102ac578251825591602001919060010190610291565b506102b89291506102bc565b5090565b5b808211156102b857600081556001016102bd565b634e487b7160e01b600052604160045260246000fd5b600060208083850312156102fa57600080fd5b82356001600160401b038082111561031157600080fd5b818501915085601f83011261032557600080fd5b813581811115610337576103376102d1565b8060051b604051601f19603f8301168101818110858211171561035c5761035c6102d1565b60405291825284820192508381018501918883111561037a57600080fd5b938501935b828510156103985784358452938501939285019261037f565b98975050505050505050565b6000602082840312156103b657600080fd5b5035919050565b634e487b7160e01b600052603260045260246000fd5b6000600182016103f357634e487b7160e01b600052601160045260246000fd5b5060010190565b60008261041757634e487b7160e01b600052601260045260246000fd5b50069056fea2646970667358221220260058e18cf1f50bb381e430b711bfb9d633d86c894150789c78cb146c50504d64736f6c63430008110033",
  "linkReferences": {},
  "deployedLinkReferences": {}
}